S01000004535355F313033302E7372656342
S214500000A55AA55A0100000000000000001050003C
S214500010000000000010500000000000000000002B
S214500020000000000000000000000000000000007B
S214500030000000000000000000000000000000006B
S214500040000000000000000000000000000000005B
S214500050000000000000000000000000000000004B
S2145010000000432021145000210C5300230C5300A1
S214501010250C5300270C5300290C530000000000E9
S2145010200000000000000000000000002B0C5300E1
S2145010302D0C5300000000002F0C5300310C5300B1
S214501040330C5300330C5300330C5300330C530003
S214501050330C5300330C5300330C5300330C5300F3
S214501060330C5300330C5300330C5300330C5300E3
S214501070330C5300330C5300330C5300330C5300D3
S214501400330C5300330C530000BF00BF00BF00BF67
S214501410FFF7FABF000000000000000000000000C8
S21450142072B64FF000004FF000014FF000024FF040
S21450143000034FF000044FF000054FF000064FF049
S21450144000074F4801684FF0807201EA02010029F8
S2145014501CD14C4801684FF0807241EA020101608D
S214501460494801684FF0010241EA020101604748CD
S21450147045F6F02101604AF20F510160404801687C
S2145014804FF0807201EA02010029F7D040484149E6
S2145014900160414801684FF00000814200D003E0EF
S2145014A03E4880F3088803E03D4880F3088822E0F1
S2145014B03C484CF2205101604DF6281101603A48E4
S2145014C03A4901600AE03A484CF2205101604DF624
S2145014D028110160374835490160FFE73648002833
S2145014E009D03649364A521A013A04DD0020002304
S2145014F009C1083AFCDA3348002810D03249086847
S2145015004FF0010240EA020008603049304A521A51
S214501510013A04DD0020002309C1083AFCDA2D48C0
S214501520002810D02C4908684FF0010240EA02000B
S21450153008602A492A4A521A013A04DD002000233C
S21450154009C1083AFCDA274800684FF05A318842F9
S214501550F9D0114801684FF00000814200D001E0F8
S2145015602FF0C6FB2FF05DFC62B62FF057FC2BF029
S21450157001F900BFFEE700BFAFF30080AFF3008075
S21450158010C32D4030C32D4004C32D4000C02D4005
S21450159008ED00E0002043200400264000004320D1
S2145015A0002043201000274000002740400000FF46
S2145015B010C0464000C046400100000000004020D9
S2145015C0004044200100000094EF00E0000000209E
S2145015D0000002200100000090EF00E00000000034
S2145015E000000100709E4020034B5B68DBB203F0A6
S2145015F00303DBB2184670470000264000B585B09E
S21450160000238DF80F30904BD3F8143303F08073CB
S214501610002B3FD18C4BD3F834338B4A43F0807336
S214501620C2F83433884BD3F80033874A43F001036B
S214501630C2F80033844BD3F80433834A43F0010393
S214501640C2F8043337F048FB6A4601A902A84CF2A8
S214501650503335F029FB009A01A902AB184635F0F5
S2145016603DFB03468DF80F30774BD3F8143303F019
S2145016708073002B06D19DF80F3083F00103DBB248
S214501680002BE8D19DF80F30002B03D00721012006
S21450169035F0FAFA6C4BD3F8143303F40013002BDE
S2145016A03FD1694BD3F83433674A43F40013C2F83A
S2145016B03433654BD3F80033634A43F00103C2F822
S2145016C00033614BD3F804335F4A43F00103C2F84A
S2145016D0043337F001FB6A4601A902A84CF2503396
S2145016E035F0E2FA009A01A902AB184635F0F6FA40
S2145016F003468DF80F30544BD3F8143303F40013CD
S214501700002B06D19DF80F3083F00103DBB2002B7F
S214501710E8D19DF80F30002B03D00521012035F07D
S214501720B3FA494BD3F8143303F40023002B3FD1BC
S214501730454BD3F83433444A43F40023C2F8343389
S214501740414BD3F80033404A43F00103C2F800330C
S2145017503D4BD3F804333C4A43F00103C2F80433FC
S21450176037F0BAFA6A4601A902A84CF2503335F05F
S2145017709BFA009A01A902AB184635F0AFFA034619
S2145017808DF80F30304BD3F8143303F40023002B6E
S21450179006D19DF80F3083F00103DBB2002BE8D161
S2145017A09DF80F30002B03D00621012035F06CFA3F
S2145017B0254BD3F8143303F40043002B3FD1224B70
S2145017C0D3F83433204A43F40043C2F834331E4B24
S2145017D0D3F800331C4A43F00103C2F800331A4BC7
S2145017E0D3F80433184A43F00103C2F8043337F0F1
S2145017F073FA6A4601A902A84CF2503335F054FAEF
S214501800009A01A902AB184635F068FA03468DF8DF
S2145018100F300D4BD3F8143303F40043002B06D18E
S2145018209DF80F3083F00103DBB2002BE8D19DF812
S2145018300F30002B03D08F21012035F025FA00BF42
S21450184005B05DF804FB00BF00C02D4000B583B066
S214501850384B1B68019301983DF0AEFB03468DF85C
S214501860033001983DF0E7FB03468DF802300198AF
S2145018703DF087FC03468DF801302F4B1B78002B2C
S2145018804BD0019B9B699DF802109DF801200A40A1
S214501890D2B21A43019B9A619DF802209DF80130FE
S2145018A01340DBB203F00103002B05D09DF8023045
S2145018B01946002001F0A0FB9DF802209DF801304B
S2145018C01340DBB203F00203002B05D09DF8023024
S2145018D01946012001F090FB9DF802209DF801303A
S2145018E01340DBB203F00403002B05D09DF8023002
S2145018F01946022001F080FB9DF802209DF8013029
S2145019001340DBB203F00803002B0ED09DF80230D4
S2145019101946032001F070FB07E09DF80320019B59
S2145019205A619DF80220019B9A6100BF03B05DF892
S21450193004FB00BF7CC85500B824432084B00190F7
S214501940019B5B680393039B1B0ADBB20393039BC9
S214501950DBB2184604B0704786B003900B4601922F
S2145019608DF80B309DF80B20039B02F5807253F8D0
S21450197022300593059B23F007030593019B03F044
S2145019800703059A134305939DF80B20039B02F516
S2145019908072059943F8221000BF06B0704784B095
S2145019A003900B4601928DF80B30019B9B6903F018
S2145019B00702019B1B7B1B0203F4F8531A43019B3F
S2145019C01B69DB01DBB21A43019B5B691B0403F402
S2145019D040331A43019B9B689B0503F480031A43CC
S2145019E0019B5B68DB0503F4000342EA0301019B9D
S2145019F01B781B0603F07C539DF80B201943039B62
S214501A0002F5807243F8221000BF04B0704782B0CF
S214501A1001900B468DF803309DF80320019B02F58C
S214501A20A07253F822309BB2184602B0704784B06A
S214501A3003900B4601928DF80B30019B1B685B00A0
S214501A4003F00202019B5B681B0103F030031A434C
S214501A50019B9B681B0203F4E0631A43019BDB68FF
S214501A601B0303F4E0431A43019B1B691B0403F456
S214501A70E0231A43019B5B691B0503F4E00342EA2B
S214501A800301019B9B691B0603F040739DF80B20D6
S214501A901943039B02F5907243F8221000BF04B01E
S214501AA0704700B585B0034600918DF80730002387
S214501AB08DF80F309DF80720009B9B7819461046EE
S214501AC03DF0DAFB9DF80730009918463DF01AFDB8
S214501AD00290029B012B00F0DD80009BDB68009A91
S214501AE052689A6000238DF80F30BCE0009BDA688D
S214501AF09DF80F301344002283F80C21009B9A68FF
S214501B009DF80F309B0013441A68009BD9689DF8C7
S214501B100F30526A12339B000B445A60009B9A68EF
S214501B209DF80F309B0013441A68009BD9689DF8A7
S214501B300F30926A1A339B000B445A60009B9A6887
S214501B409DF80F309B0013441A68009BD9689DF887
S214501B500F30D26902339B000B445A60009B9A6840
S214501B609DF80F309B0013441A68009BD9689DF867
S214501B700F30126A0A339B000B445A60009B9A68D7
S214501B809DF80F309B0013441968009BDA689DF847
S214501B900F30C9781B0113448C330A461A70009BC9
S214501BA09A689DF80F309B0013441968009BDA68BA
S214501BB09DF80F3009791B0113448D330A461A706D
S214501BC0009B9A689DF80F309B0013441968009B41
S214501BD0DA689DF80F30097B1B0113448E330A4692
S214501BE01A70009B9A689DF80F309B0013441A6831
S214501BF0009BD9689DF80F3012691B010B44903337
S214501C001A60009B9A689DF80F309B0013441A6820
S214501C10009BD9689DF80F30526909331B010B445D
S214501C2004331A60009B9A689DF80F309B0013444B
S214501C301A68009BD9689DF80F30926809331B01CB
S214501C400B4408331A609DF80F30154A002142F8AD
S214501C5023109DF80F30134A0021D1549DF80F30B1
S214501C6001338DF80F30009B9B789DF80F209A42D9
S214501C70FFF43CAF009B9978009BDA689DF80730DC
S214501C8018463DF058FC9DF80730009AD268064931
S214501C9041F82320029B184605B05DF804FB00BFB0
S214501CA098A54020A8A5402080A4402010B485B018
S214501CB003468DF8073000238DF80F30CAE09DF8A4
S214501CC007309DF80F206E492C2000FB02F2B02002
S214501CD000FB03F313440B441A3300221A709DF88A
S214501CE007309DF80F2066492C2000FB02F2B020EA
S214501CF000FB03F313440B44203300221A609DF874
S214501D0007309DF80F205E492C2000FB02F2B020D1
S214501D1000FB03F313440B44243300221A609DF84F
S214501D2007309DF80F2056492C2000FB02F2B020B9
S214501D3000FB03F313440B44283300221A609DF82B
S214501D4007309DF80F204E492C2000FB02F2B020A1
S214501D5000FB03F313440B441B3300221A709DF808
S214501D6007309DF80F2046492C2000FB02F2B02089
S214501D7000FB03F313440B441C3300221A70002359
S214501D808DF80E3016E09DF807209DF80F109DF840
S214501D900E303B482C2404FB01F1B02404FB02F225
S214501DA00A440244134400221A709DF80E30013340
S214501DB08DF80E309DF80E30072BE4D900238DF8A1
S214501DC00E3017E09DF807209DF80F109DF80E3046
S214501DD02B482C2404FB01F1B02404FB02F20A44E5
S214501DE002441344083300221A709DF80E30013313
S214501DF08DF80E309DF80E30112BE3D900238DF858
S214501E000E300EE09DF80F209DF80E301D49120240
S214501E101344002221F813209DF80E3001338DF81C
S214501E200E309DF80E30FF2BECD19DF80730164A39
S214501E3052F823209DF80F301344002283F80C21CB
S214501E409DF80F30114A0021D1549DF80F300133C0
S214501E508DF80F309DF807300B4A52F823305B78D8
S214501E609DF80F209A42FFF42AAF9DF80730064A95
S214501E70002142F8231000BF05B05DF8044B7047B0
S214501E80BC2443206C25432080A440206C2D432046
S214501E9030B589B003460A468DF8073013468DF89C
S214501EA0063001230793002140F6116043F0BFFC33
S214501EB00590002043F085FC0346039300230693C9
S214501EC0824B04939DF80730814A52F82330814A5A
S214501ED013609DF807309DF806207F4C7F492C20D4
S214501EE000FB02F2B02000FB03F313440B441D46E4
S214501EF00FCD0FC40FCD0FC495E8070084E8070038
S214501F00754B00225A62744B00229A76744A9DF89A
S214501F1007301370724A9DF8063053706D4B1B682D
S214501F209B68012B40F0C9806A4B1A689DF80630B2
S214501F3012339B0013445B68002B00F0BE8048E0D1
S214501F40644B1A689DF806301B0113448C331B787B
S214501F50194604983DF045F80346002B30D05D4BAB
S214501F601A689DF806301B0113448C331B781946AB
S214501F700498FFF74CFD03461A46574B1A62554BCA
S214501F801A689DF806301B0113448E331878514B4F
S214501F901A689DF806301B01134490331968504B4D
S214501FA04D4A3DF00DFE07904A4B1A689DF8063094
S214501FB01B0113448C331B78194604983DF042F8A5
S214501FC003AB0021184643F00EFC0246069B134412
S214501FD00693414B5B6A022B03D0069A059B9A42A6
S214501FE0AED3069A059B9A4215D306230793394BD0
S214501FF01A689DF8063002339B0013445B68002B2A
S21450200009D0344B1A689DF8063002339B001344AF
S2145020105B6805209847079B002B51D12D4B1A68BB
S2145020209DF8063009331B01134404331868294BB6
S2145020301A689DF806301B0113448E331B78264AC7
S21450204019463DF029FD0790224B1B681A78244B01
S2145020501A70234A9DF8063053701E4B1A689DF826
S21450206006301B0113448E331A781D4B9A70079B0B
S214502070052B0AD1174B1A689DF8063012339B0071
S21450208013445B68164907989847124B1A689DF890
S214502090063002339B0013445B68002B10D0079B1E
S2145020A0042B0DD10B4B1A689DF8063002339B005B
S2145020B013445B680020984702E00123079300E032
S2145020C000BF079B184609B030BD00BF00403240E5
S2145020D080A44020D8044020DC044020BC24432068
S2145020E00805402030B58FB000238DF837300021DA
S2145020F040F6116043F09BFB0990002043F061FBD3
S2145021000346059300230C9306230B930023ADF848
S2145021102A3000238DF8293000238DF828304F4B75
S21450212008934F4B1B684F4A13603DF04BFF0023FC
S2145021308DF8363082E04B4B1A689DF836301B01CE
S21450214013448C331B781A4601239340DAB29DF819
S214502150373013438DF837309DF83630424A2C21AD
S21450216001FB03F31344243300221A609DF83630E3
S2145021703D4A2C2101FB03F313441A3300221A70F4
S2145021809DF83630012202FA03F3DAB29DF8283071
S21450219013438DF828309DF836309DF83620324956
S2145021A02C2000FB02F28818304A2C2101FB03F346
S2145021B0134404461D460FCD0FC40FCD0FC495E8EB
S2145021C0070084E807009DF83630274A2C2101FB8B
S2145021D003F31344283300221A609DF83630224AFF
S2145021E02C2101FB03F313441B3300221A709DF875
S2145021F036201F4913469B0013445B0013440B4480
S21450220000221A709DF83620194913469B00134435
S2145022105B0013440B4401339DF836201A709DF82A
S2145022203630114A2C2101FB03F313441C33002291
S2145022301A709DF8363001338DF83630084B1B68CF
S2145022405B789DF836209A42FFF475AF9DF837308C
S2145022500122194608983CF09BFF82E1004032402C
S21450226080A440201405402018054020BC2443205C
S214502270C8054020BDF82A30C34AD35CFF2B00F077
S2145022806781BDF82A30C04AD35C8DF836309DF849
S21450229036309B000EAA1344012243F8342CBB4B15
S2145022A01B689B68012B40F03F81B84B1A689DF81D
S2145022B0363012339B0013445B68002B00F0348199
S2145022C09DF829209DF8363042FA03F303F00103B7
S2145022D0002B40F029819DF83630AD4A2C2101FB69
S2145022E003F313441C331B788DF81F309DF83620AB
S2145022F09DF81F30A7491202134431F813209DF859
S21450230036301046A24A2C2101FB03F313442033E7
S21450231018609E4B1A689DF836301B0113448E3356
S21450232018789A4B1A689DF836301B011344903330
S21450233019689DF836302C2202FB03F3944A9D18F8
S2145023409DF8362013469B0013445B001344924A74
S21450235013449DF836402A463DF032FC0246A30010
S2145023600EA90B4443F8342C9DF836209DF81F30A8
S214502370884912021344002221F813209DF81F307A
S21450238001338DF81F309DF83630814A2C2101FBE1
S21450239003F313441C339DF81F201A709DF83630F3
S2145023A09B000EAA134453F8343C002B40F0A780F1
S2145023B09DF83630764A2C2101FB03F31344243320
S2145023C01B68022B40F09B80704B1A689DF8363085
S2145023D009331B011344043318686C4B1A689DF874
S2145023E036301B0113448E3319789DF836302C2224
S2145023F002FB03F3664A13441A463DF04DFB069023
S214502400624B1B689DF836201878634913469B002C
S21450241013445B0013440B4402461A709DF8362052
S2145024205D4913469B0013445B0013440B44013331
S2145024309DF836201A70554B19689DF836309DF821
S21450244036201B010B448E331878534913469B0095
S21450245013445B0013440B44023302461A70069B27
S214502460052B13D1494B1A689DF8363012339B0012
S21450247013445C689DF8362013469B0013445B005B
S2145024801344454A134419460698A0473F4B1A68CA
S2145024909DF8363002339B0013445B68002B0CD0FB
S2145024A0069B042B09D1394B1A689DF836300233F7
S2145024B09B0013445B6800209847069B052B0AD167
S2145024C09DF83630012202FA03F3DAB29DF829302D
S2145024D013438DF829309DF836302D4A2C2101FBB8
S2145024E003F31344243300221A609DF83630284AEA
S2145024F02C2101FB03F313441A3300221A70BDF843
S2145025002A30214AFF21D154BDF82A3040F2FF72BA
S214502510934203D10023ADF82A3019E0BDF82A3093
S2145025200133ADF82A3013E0BDF82A30164AFF21A1
S214502530D154BDF82A3040F2FF72934203D10023A3
S214502540ADF82A3004E0BDF82A300133ADF82A3011
S21450255005AB0021184643F046F902460C9B13443F
S2145025600C930C9A099B9A4206D29DF829209DF806
S21450257028309A427FF47EAE9DF82930002B0DD03D
S21450258000230B930CE000BF742D4320140540200D
S214502590180540206C254320C805402006230B9381
S2145025A09DF837300022194608983CF0F1FD3DF072
S2145025B009FD0B9B18460FB030BD30B58BB00346A7
S2145025C00A468DF8073013468DF80630002140F63F
S2145025D0116043F02CF90590002043F0F2F80346C2
S2145025E002930023099301230893002307930023A3
S2145025F08DF81B309B4B04939DF807309A4A52F83F
S21450260023309A4A13609DF807309DF80620984C60
S21450261098492C2000FB02F2B02000FB03F3134431
S2145026200B441D460FCD0FC40FCD0FC495E80700C1
S21450263084E807008E4B00229A628D4B0022DA7691
S2145026408D4A9DF8073013708B4A9DF806305370AC
S214502650864B1B689B68012B40F03481834B1A686D
S2145026609DF806301A339B0013445B68002B00F02D
S214502670298100238DF81B30E0E07D4B00225A6202
S2145026807B4B00229A760023099348E0774B1A68D2
S2145026909DF806301B0113448C331B78194604985A
S2145026A03CF09FFC0346002B30D0704B1A689DF8C8
S2145026B006301B0113448C331B7819460498FFF7D9
S2145026C0A6F903461A466A4B1A62684B1A689DF872
S2145026D006301B0113448E331878644B1A689DF8E5
S2145026E006301B01134490331968634B604A3DF023
S2145026F067FA08905D4B1A689DF806301B01134424
S2145027008C331B78194604983CF09CFC02AB002195
S214502710184643F068F80246099B13440993544BF5
S2145027205B6A022B03D0099A059B9A42AED3099A4C
S214502730059B9A4217D3062307934C4B1A689DF86D
S21450274006300A339B0013445B68002B00F09680DB
S214502750464B1A689DF806300A339B0013445B6854
S214502760052098478AE0089B002B67D140483DF0EB
S214502770C0FB0346012B05D13D4B00229A623C4BD1
S2145027800022DA763A4BDB7E8DF81B30374B1A68D0
S2145027909DF8063012339B0013445B68002B4DD0D7
S2145027A0324B1A689DF8063009331B011344043324
S2145027B018682E4B1A689DF806301B0113448E334A
S2145027C01B782B4A19463DF067F90390274B1B6838
S2145027D01A78294B1A70284A9DF806305370234BA6
S2145027E01A689DF806301B0113448E331A78224B14
S2145027F09A70039B052B0AD11C4B1A689DF806301D
S21450280012339B0013445B681B4903989847174B39
S2145028101A689DF8063002339B0013445B68002B01
S2145028200CD0039B042B09D1104B1A689DF8063028
S21450283002339B0013445B68002098470C4B9B6AFE
S214502840012B03D19DF81B30102B18D0084B9B6AD8
S214502850022B7FF412AF9DF81B30122B7FF40DAF76
S2145028600DE000BF0040324080A44020F4054020D8
S214502870F8054020BC2443202406402000BF089B77
S214502880002B1FD1114B1A689DF8063009331B01D7
S214502890134404331B680E4A0E4918463CF0F4FEA7
S2145028A008900B4A9DF806301371084B1B681A782F
S2145028B0074B5A719DF806109DF80700044B089A6E
S2145028C03DF0C7FB079B18460BB030BDF4054020C3
S2145028D030064020F805402030B58FB000238DF8E4
S2145028E03730002140F6116042F0A1FF09900020D9
S2145028F042F067FF0346059300230C9306230B9381
S2145029000023ADF8023000238DF82B3000238DF8CD
S2145029102A304F4B08934F4B1B684F4A13603DF07D
S21450292051FB00238DF8363082E04B4B1A689DF8E9
S21450293036301B0113448C331B781A4601239340C0
S214502940DAB29DF8373013438DF837309DF836306D
S214502950424A2C2101FB03F31344243300221A600D
S2145029609DF836303D4A2C2101FB03F313441A33AD
S21450297000221A709DF83630012202FA03F3DAB2BA
S2145029809DF82A3013438DF82A309DF836309DF83E
S214502990362032492C2000FB02F28818304A2C216F
S2145029A001FB03F3134404461D460FCD0FC40FCD51
S2145029B00FC495E8070084E807009DF83630274A8C
S2145029C02C2101FB03F31344283300221A609DF890
S2145029D03630224A2C2101FB03F313441B330022CA
S2145029E01A709DF836201F4913469B0013445B000F
S2145029F013440B4400221A709DF83620194913468A
S214502A009B0013445B0013440B4401339DF836205F
S214502A101A709DF83630114A2C2101FB03F31344EB
S214502A201C3300221A709DF8363001338DF836303C
S214502A30084B1B685B789DF836209A42FFF475AFBA
S214502A409DF837300122194608983CF0A1FB47E222
S214502A500040324080A440203C06402040064020A3
S214502A60BC244320F0064020BDF802301A46CC4B1A
S214502A709B5CFF2B00F02B82BDF802301A46C84BE9
S214502A809B5C8DF836309DF836309B000EAA13446A
S214502A90012243F8342CC34B1B689B68012B40F033
S214502AA00982C04B1A689DF836301A339B0013447F
S214502AB05B68002B00F0FE819DF82B209DF8363089
S214502AC042FA03F303F00103002B40F0F3819DF824
S214502AD03630B54A2C2101FB03F313441C331B78C4
S214502AE08DF81F309DF836209DF81F30AF491202E2
S214502AF0134431F813209DF836301046AA4A2C213C
S214502B0001FB03F3134420331860A64B1A689DF854
S214502B1036301B0113448E331878A24B1A689DF832
S214502B2036301B011344903319689DF836302C22EA
S214502B3002FB03F39C4A9D189DF8362013469B00D3
S214502B4013445B0013449A4A13449DF836402A4671
S214502B503DF036F80246A3000EA90B4443F8342C39
S214502B609DF836209DF81F309049120213440022DB
S214502B7021F813209DF81F3001338DF81F309DF833
S214502B803630894A2C2101FB03F313441C339DF83D
S214502B901F201A709DF836309B000EAA134453F827
S214502BA0343C002B40F0C4809DF836307E4A2C21B1
S214502BB001FB03F3134424331B68022B40F0B88008
S214502BC09DF836302C2202FB03F3774A13441846FE
S214502BD03DF08FF90346012B13D19DF83630724ADB
S214502BE02C2101FB03F31344283300221A609DF86E
S214502BF036306D4A2C2101FB03F313441B3300225D
S214502C001A70684B1A689DF8363012339B0013447E
S214502C105B68002B78D0634B1A689DF836300933C2
S214502C201B011344043318685E4B1A689DF83630FF
S214502C301B0113448E3319789DF836302C2202FB34
S214502C4003F3594A13441A463CF026FF0690554B58
S214502C501B689DF836201878554913469B00134438
S214502C605B0013440B4402461A709DF836205049B8
S214502C7013469B0013445B0013440B4401339DF8EA
S214502C8036201A70474B19689DF836309DF8362016
S214502C901B010B448E331878454913469B0013444A
S214502CA05B0013440B44023302461A70069B052BF6
S214502CB013D13C4B1A689DF8363012339B001344A0
S214502CC05C689DF8362013469B0013445B00134403
S214502CD0374A134419460698A047324B1A689DF84F
S214502CE0363002339B0013445B68002B0CD0069B97
S214502CF0042B09D12B4B1A689DF8363002339B00B3
S214502D0013445B68002098479DF83630264A2C219D
S214502D1001FB03F31344243300221A609DF8363027
S214502D20214A2C2101FB03F313441A3300221A7054
S214502D30BDF802301A461A4BFF2199540DF1020382
S214502D4018463DF071F99DF83630174A2C2101FB94
S214502D5003F3134428331B68012B0AD19DF83630F1
S214502D60114A2C2101FB03F313441B331B78102B01
S214502D7022D09DF836300C4A2C2101FB03F3134425
S214502D8028331B68022B40F0A1809DF83630064A47
S214502D902C2101FB03F313441B331B78122B09E041
S214502DA0742D43203C064020400640206C2543208E
S214502DB0F006402040F08A809DF836209DF8363048
S214502DC053492C2000FB02F20A441C321078514A18
S214502DD02C2101FB03F313441C3302461A704E4B4E
S214502DE01A689DF8363009331B01134404331868AB
S214502DF09DF836302C2202FB03F3454A99189DF86D
S214502E00362013465B0013449B00444A13441A462C
S214502E103CF03AFC06909DF83620404913465B003D
S214502E2013449B000B4404339DF836201A703A4BDB
S214502E301B689DF836201878384913465B001344B3
S214502E409B000B44053302461A70069B052B0CD18B
S214502E509DF83630012202FA03F3DAB29DF82B3091
S214502E6013438DF82B3000230B932B4B1B6818788D
S214502E709DF8362013465B0013449B00274A1344A4
S214502E809DF83610069A3DF0E4F89DF83630204A04
S214502E902C2101FB03F31344283300221A609DF8BB
S214502EA036301B4A2C2101FB03F313441B330022FC
S214502EB01A700BE0BDF802301A46194BFF21995490
S214502EC00DF1020318463DF0AFF800E000BF05AB29
S214502ED00021184642F087FC02460C9B13440C9384
S214502EE00C9A099B9A4206D29DF82B209DF82A30C0
S214502EF09A427FF4B9AD9DF83730002219460898AB
S214502F003CF046F93DF05EF80B9B18460FB030BDCE
S214502F1040064020BC2443203C0640201C0740204E
S214502F20742D432084B0034600928DF807300B462C
S214502F308DF8063000238DF80F309DF80730284A5C
S214502F4052F82330274A136000238DF80F3010E0D4
S214502F50244B1A689DF80F301B0113448C331B7892
S214502F609DF806209A4209D09DF80F3001338DF80F
S214502F700F309DF80F30032BEAD900E000BF9DF8C4
S214502F800F309DF80F2018498A5C1046009A91B26F
S214502F90164A1B02034422F81310154B1B88194679
S214502FA0144A9DF80F3053549DF80F300E4AD25C99
S214502FB00132D1B20C4AD1540D4B1B8840F2FF72ED
S214502FC0934203D10A4B00221A8005E0084B1B8817
S214502FD001339AB2064B1A8000BF04B0704700BF48
S214502FE080A440204C0740206C2D43206C25432065
S214502FF0702D4320742D432000B587B003460A46F3
S2145030008DF8073013468DF80630174B0593059804
S2145030103CF0B7F803468DF813309DF806209DF81F
S214503020133013408DF812309DF807301946059826
S214503030FEF7EDFC034603939DF80730012202FA93
S21450304003F3DAB29DF812301340DBB2002B06D0F1
S2145030509DF80730039A19460020FFF763FF00BF1C
S21450306007B05DF804FB00BF0040324082B0034614
S2145030708DF807309DF80730DBB2002B01D100BE2B
S214503080FDE700BF02B0704730B585B003460091EB
S2145030908DF807309DF8073003F03F038DF80E305B
S2145030A0FF238DF80F309DF80730002118463DF06D
S2145030B0FDF903461C469DF80730012118463DF0A1
S2145030C0F5F903466340DCB29DF8073002211846F6
S2145030D03DF0ECF903466340DCB29DF8073004211E
S2145030E018463DF0E3F903466340DBB29B01DCB281
S2145030F09DF80730012118463DF0D8F903461D4685
S2145031009DF80730032118463DF0D0F903466B4032
S214503110DDB29DF80730042118463DF0C7F9034646
S2145031206B40DDB29DF80730052118463DF0BEF9DC
S21450313003466B40DBB203F00103DBB2002B01D138
S214503140802300E000232343DAB29DF80E30134369
S2145031508DF80E30009B002B10D19DF807209DF85F
S2145031600E309A4203D0FF238DF80F300DE09DF8B5
S214503170073003F03F038DF80F3006E0009B012B1D
S21450318003D19DF80E308DF80F309DF80F3018464D
S21450319005B030BD84B001900B468DF80330134611
S2145031A08DF802300023ADF80C309DF802303C2BE1
S2145031B010D09DF802307D2B0CD09DF80230FE2B9F
S2145031C008D09DF80230BF2B04D09DF80230ADF8E1
S2145031D00C3002E00023ADF80C3000238DF80F3091
S2145031E018E09DF80F30019A13441B789AB2BDF838
S2145031F00C301344ADF80C30BDF80C30FF2B04D90E
S214503200BDF80C30FF3BADF80C309DF80F30013355
S2145032108DF80F309DF80F209DF803309A42E0D37A
S214503220BDF80C30DBB2DB43DBB2184604B0704757
S21450323082B003468DF807309DF80730DBB2002B7E
S21450324001D100BEFDE700BF02B0704710B4EFF3E7
S21450325010831C46234618465DF8044B704710B43E
S214503260EFF310831C46234618465DF8044B704710
S21450327010B4EFF310831C46234618465DF8044BF3
S214503280704710B4EFF310831C46234618465DF87B
S214503290044B704710B4EFF310831C462346184671
S2145032A05DF8044B704710B4EFF310831C4623466A
S2145032B018465DF8044B704710B4EFF310831C4665
S2145032C0234618465DF8044B704710B4EFF310834E
S2145032D01C46234618465DF8044B704710B4EFF36F
S2145032E010831C46234618465DF8044B704782B040
S2145032F003468DF807309DF80730DBB2002B01D11E
S21450330000BEFDE700BF02B0704782B003468DF89E
S21450331007309DF80730DBB2002B01D100BEFDE729
S21450332000BF02B07047000000B583B003468DF86A
S2145033300730064B1B78DBB20133DAB2034B1A70F8
S21450334000F042F900BF03B05DF804FBFC74402067
S21450335082B003468DF8073000BF02B0704730B5D4
S2145033608DB08DED040B039002910192039BD3E92F
S2145033700023DDE904012AF0CDFE0346002B20D0C1
S21450338000230893039BD3E90023DDE904012AF0C8
S2145033908DFA02460B4614461D46039B0833D3E966
S2145033A00001039BD3E900232AF080FA02460B461D
S2145033B0204629462AF05CFD02460B46CDE90A23F4
S2145033C087E0019BDB00039A1344D3E90023DDE931
S2145033D004012AF095FE0346002B4BD0019B5B0858
S2145033E0079300230893019B099316E0079BDB0085
S2145033F0039A1344D3E90023DDE904012AF080FE42
S2145034000346002B02D0079B099301E0079B0893C5
S214503410099A089B13445B080793099A089BD31A8A
S214503420012BE3D8089BDB00039A1344D3E900230F
S214503430DDE904012AF03AFA02460B4614461D46C8
S214503440089B0133DB00039A1344D3E90001089B21
S214503450DB00039A1344D3E900232AF027FA0246E6
S2145034600B46204629462AF003FD02460B46CDE978
S2145034700A232EE0019B013B0893019A6FF06043AC
S2145034801344DB00039A1344D3E90023DDE9040117
S2145034902AF00CFA02460B4614461D46019BDB00EA
S2145034A0039A1344D3E90001019A6FF06043134422
S2145034B0DB00039A1344D3E900232AF0F7F90246B7
S2145034C00B46204629462AF0D3FC02460B46CDE949
S2145034D00A23089B0133DB00029A1344D3E9000108
S2145034E0089BDB00029A1344D3E900232AF0DEF946
S2145034F002460B4610461946DDE90A232AF08EFB93
S21450350002460B4610461946089BDB00029A1344A7
S214503510D3E900232AF0CCF902460B4643EC172B8E
S214503520B0EE470AF0EE670A0DB030BD82B001909B
S214503530244BDB88002B0CBF01230023DAB2019BFF
S21450354001331A701F4B1B89002B0CBF012300231D
S214503550DAB2019B02331A701A4B5B89002B0CBFF0
S21450356001230023DAB2019B03331A70154B9B8953
S214503570002B0CBF01230023DAB2019B04331A70D0
S214503580104BDB89002B0CBF01230023DAB2019BC2
S21450359005331A700B4B1B8A002B0CBF01230023DC
S2145035A0DAB2019B06331A70064B5B8A002B0CBFAF
S2145035B001230023DAB2019B07331A7000BF02B012
S2145035C0704700BFA02B40203A4BDB88002B1AD107
S2145035D0384B1B89002B0CBF01230023DAB2354B26
S2145035E01A75344B5B89002B0CBF01230023DAB2CB
S2145035F0304B5A752F4B1B8A002B0CBF01230023D0
S214503600DAB22C4B9A752B4BDA88013292B2DA80AA
S214503610284BDB88012B02D9264B0022DA80254B1B
S2145036201A89013292B21A81224B1B89092B02D970
S214503630204B00221A811F4B5A89013292B25A816E
S2145036401C4B5B89132B02D91A4B00225A81194BFB
S2145036509A89013292B29A81164B9B89272B02D9AE
S214503660144B00229A81134BDA89013292B2DA81D6
S214503670104BDB89632B02D90E4B0022DA810D4B9F
S2145036801A8A013292B21A820A4B1B8AC72B02D967
S214503690084B00221A82074B5A8A013292B25A823B
S2145036A0044B5B8AB3F5C87F02D3024B00225A8282
S2145036B000BF7047A02B402000B585B08DED020BA3
S2145036C001904FF00002264BDDE902012AF018FD6A
S2145036D00346002B06D001994FF00002214BC1E95A
S2145036E0002333E04FF000021F4BDDE902012AF0C1
S2145036F007FD0346002B15D0DDE902234FF00000EE
S2145037001A492AF0B5FB02460B461046194612A334
S214503710D3E900232AF0CCF802460B460199C1E9BA
S214503720002313E0DDE902234FF0000010492AF091
S2145037309FFB02460B464FF000004FF080412AF0A8
S214503740B5F802460B460199C1E9002300BF05B003
S2145037505DF804FBAFF300809A9999999999C93FFF
S214503760000024400000F03F00004E400000204083
S2145037700000594000B585B08DED020B01904FF01A
S2145037800002254BDDE902012AF0BAFC0346002B65
S21450379006D001994FF00002204BC1E9002332E0D9
S2145037A04FF000021E4BDDE902012AF0A9FC034649
S2145037B0002B13D0DDE902234FF0000019492AF000
S2145037C057FB02460B4612A1D1E900012AF06EF8CB
S2145037D002460B460199C1E9002314E0DDE90223B5
S2145037E04FF0000010492AF043FB02460B461046A5
S2145037F019464FF000020D4B2AF05AF802460B4677
S2145038000199C1E9002300BF05B05DF804FB00BF75
S214503810666666666666F63F000024400000F03F27
S21450382000004E4000001040000049400000E03FBD
S21450383008B5FFF7C9FE00BF08BD2DE9F04FADF63D
S214503840CC5D7B4B03F5805393F89538002B03D013
S2145038500023CDF8603D09E0764B1A68744B03F5AB
S2145038608053D3F8B837D31ACDF8603D714B1A68E9
S2145038706F4B03F58053C3F8B8276D4B03F5805351
S2145038801A46002382F8953803216B484FF007F804
S21450389003466A4A13700D2169484FF000F80346F4
S2145038A0684A13700A2168484EF0F9FF0346674A83
S2145038B013700A202AF088FE0346654AA2F8F038AC
S2145038C000238DF8F33C02238DF8F23C00238DF84C
S2145038D0FF3C0DE09DF8FF2C0DF6C853A3F674532D
S2145038E01A44002313729DF8FF3C01338DF8FF3CB9
S2145038F09DF8FF3C072BEDD9554A40F25A53C2F873
S214503900A8381421002038F0C9FA15AA012314212A
S214503910002037F0CDFB03468DF8F23C9DF8F32C93
S2145039200DF6C853A3F6745313441B7A484A82F8CC
S21450393004399DF8F33C01338DF8F33C9DF8F32C95
S2145039400DF6C853A3F6745313441B7A404A82F8B4
S21450395005399DF8F33C01338DF8F33C9DF8F32C74
S2145039600DF6C853A3F6745313441B7A384A82F89C
S21450397006399DF8F33C01338DF8F33C9DF8F32C53
S2145039800DF6C853A3F6745313441B7A304A82F884
S21450399007399DF8F33C01338DF8F33C9DF8F32C32
S2145039A00DF6C853A3F6745313441B7A284A82F86C
S2145039B008399DF8F33C01338DF8F33C9DF8F32C11
S2145039C00DF6C853A3F6745313441B7A204A82F854
S2145039D009399DF8F33C01338DF8F33C9DF8F32CF0
S2145039E00DF6C853A3F6745313441B7A184A82F83C
S2145039F00A399DF8F33C01338DF8F33C9DF8F32CCF
S214503A000DF6C853A3F6745313441B7A104A82F823
S214503A100B399DF8F33C01338DF8F33C9DF8F23C9E
S214503A20002B17D10A4A012382F8033916E000BF4B
S214503A3008134020A02B402008172940DD084020BE
S214503A400A172940DE08402010172940DF0840207A
S214503A50F0084020D04A002382F80339CE4B93F822
S214503A600339002B00F0828200238DF8F13CCA4ABD
S214503A70082382F82133C84BD3F8A828C64BC3F87E
S214503A802423C54A002382F820339DF8F12CC24BDC
S214503A9093F80419C04B1A440B4682F830339DF8FD
S214503AA0F13C01338DF8F13C9DF8F12CBA4B93F86C
S214503AB00519B94B1A440B4682F830339DF8F13C41
S214503AC001338DF8F13C9DF8F12CB34B93F8061961
S214503AD0B14B1A440B4682F830339DF8F13C013313
S214503AE08DF8F13C9DF8F12CAB4B93F80719AA4B87
S214503AF01A440B4682F830339DF8F13C01338DF86A
S214503B00F13C9DF8F12CA44B93F80819A24B1A449B
S214503B100B4682F830339DF8F13C01338DF8F13C7A
S214503B209DF8F12C9C4B93F809199B4B1A440B4665
S214503B3082F830339DF8F13C01338DF8F13C9DF816
S214503B40F12C954B93F80A19934B1A440B4682F86E
S214503B5030339DF8F13C01338DF8F13C9DF8F12C53
S214503B608D4B93F80B198C4B1A440B4682F8303316
S214503B709DF8F13C01338DF8F13C874B93F8213397
S214503B80082B40F0F381844BD3F82433B3F1FF3F36
S214503B9000F0EC81804BD3F8242340F25A539A42DB
S214503BA040F0E4817C4B93F82033002B40F0DE81CC
S214503BB04FF000024FF000030DF6E841C1E9002334
S214503BC000238DF8E73C00238DF8E63C724B93F8C3
S214503BD032239DF8E63C13438DF8E63C9DF8E63CD0
S214503BE08DF8E73C9DF8E73C184629F09DFF0246C5
S214503BF00B460DF6E841C1E900230DF6E843D3E93C
S214503C0000230DF6D841C1E90023634B03F5046346
S214503C1019460DF6D843D3E90023C1E900234FF0E7
S214503C2000024FF000030DF54D61C1E9002300235B
S214503C30ADF8CE3C0023ADF8CC3C574B93F8303320
S214503C409AB2BDF8CC3C1343ADF8CC3C524B93F8EB
S214503C5031339BB21B029AB2BDF8CC3C1343ADF83D
S214503C60CC3CBDF8CC3CADF8CE3CBDF8CE3C18466E
S214503C7029F05AFF02460B460DF54D61C1E9002367
S214503C800DF6C84319460DF54D63D3E9002341E9B7
S214503C9002230DF6C8431C460DF6C84319463CA3EE
S214503CA0D3E9002351E9020129F0B8FF02460B463A
S214503CB044E90223384B03F5056319460DF6C8430D
S214503CC053E9022341E902230DF6B84319464FF053
S214503CD000024FF00003C1E900230DF6C853A3F2CB
S214503CE01112002313700DF6C853A3F589720023E2
S214503CF01370294B93F835130DF6C853A3F58972F4
S214503D000DF6C853A3F589731B780B4313700DF645
S214503D10C853A3F211120DF6C853A3F589731B7836
S214503D2013700DF6B8431C460DF6C853A3F2111384
S214503D301B78184629F0F8FE02460B46C4E90023C5
S214503D400DF6A84319460DF6B843D3E90023C1E94A
S214503D5000230DF6A8431C460DF6A84319460CA39F
S214503D60D3E90023D1E9000129F058FF02460B465B
S214503D70C4E90023084B03F5056319460DF6A8431E
S214503D80D3E90023C1E900230DF6A843194605E000
S214503D909A9999999999B93FF00840204FF00002A6
S214503DA04FF0000341E902230DF6C853A3F5957270
S214503DB0002313800DF6C853A3F596720023138084
S214503DC0934B93F8333399B20DF6C853A3F59672C6
S214503DD00DF6C853A3F596731B880B4313808C4B74
S214503DE093F834339BB21B029BB21BB203F4F853C6
S214503DF01AB20DF6C853A3F59673B3F900301343B1
S214503E0019B20DF6C853A3F596720B4613800DF6ED
S214503E10C853A3F595720DF6C853A3F596731B8831
S214503E2013800DF6A8431C460DF6C853A3F595739C
S214503E301B88184629F078FE02460B4644E90223B2
S214503E400DF6984319460DF6A84353E9022341E967
S214503E5002230DF698431C460DF69843194668A360
S214503E60D3E9002351E9020129F0D8FE02460B4659
S214503E7044E90223664B03F5066319460DF698434C
S214503E8053E9022341E902230DF6884319464FF0C1
S214503E9000024FF00003C1E900230DF6C853A3F506
S214503EA0A172002313800DF6C853A3F5A272002307
S214503EB01380574B93F8363399B20DF6C853A3F583
S214503EC0A2720DF6C853A3F5A2731B880B4313803A
S214503ED04F4B93F837339BB21B0299B20DF6C8532B
S214503EE0A3F5A2720DF6C853A3F5A2731B880B4315
S214503EF013800DF6C853A3F5A1720DF6C853A3F55B
S214503F00A2731B8813800DF688431C460DF6C853C3
S214503F10A3F5A1731B88184629F006FE02460B46E9
S214503F20C4E900230DF6784319460DF68843D3E9C5
S214503F300023C1E900230DF678431C460DF678435E
S214503F40194631A3D3E90023D1E9000129F066FED2
S214503F5002460B46C4E900232D4B03F5066319466B
S214503F600DF67843D3E90023C1E90023284BB3F874
S214503F70F02841F287339A4205D8254BB3F8F038EB
S214503F80ADF8B63D03E041F28833ADF8B63D0DF6D8
S214503F90C853A3F5AA72BDF8B63D13601D4A41F248
S214503FA0B073134453E902011A4BD3E9002329F0A6
S214503FB07DFC02460B4614461D460DF6C853A3F527
S214503FC0AA73186829F0C0FD02460B4620462946BB
S214503FD029F06EFC02460B46104619460D4A41F231
S214503FE0B073134443E902010A4BD3E900230DF59D
S214503FF05761C1E900230023CDF8943D20E000BF6F
S214504000FCA9F1D24D62503F7B14AE47E17A843F13
S214504010F008402008134020DDF8943D0133B24AA2
S214504020DB001344D3E90001AF4ADDF8943DDB00D2
S2145040301344C3E90001DDF8943D0133CDF8943DB7
S214504040DDF8943DC62BE7DDA74B03F5C86319464C
S2145040500DF55763D3E9002341E902230DF6C85303
S214504060A3F5AA73186829F06FFD9F4B03F5C86334
S21450407043E902019C4A41F2B073134453E90201EA
S2145040804FF00002994B29F0F3FE02460B461046BD
S2145040901946974BC3E90001954BD3E900238EA1EF
S2145040A0D1E9000129F002FC02460B460DF6B85144
S2145040B0C1E900238AA3D3E900230DF6B851D1E90C
S2145040C0000129F0ABFD02460B460DF6B851C1E98A
S2145040D000234FF00002874B0DF6B851D1E900018E
S2145040E02AF02CF80346002B06D083494FF00002E6
S2145040F0804BC1E900231BE04FF000024FF0000355
S2145041000DF6B851D1E9000129F0FAFF0346002B0D
S21450411007D079494FF000024FF00003C1E9002361
S21450412006E075490DF6B853D3E90023C1E90023DC
S214504130724B18686C4B03F58053D3F8C4170DF6C2
S214504140C853A3F5AC72431A13606C4B1A68664B8F
S21450415003F58053C3F8C427634B03F58053B3F875
S21450416086381A460DF6C853A3F5AC731B6813442D
S214504170B3F5806F14D25C4B03F58053B3F88628A2
S2145041800DF6C853A3F5AC731B689BB2134499B293
S214504190554B03F580531A460B46A2F8863807E06F
S2145041A0514B03F580531A4640F2FF33A2F8863837
S2145041B04D4B03F5805393F87E3803F00203DBB281
S2145041C0002B20D1484B03F580531A4692F87E3880
S2145041D043F0020382F87E38434B03F5805319466A
S2145041E091F87D38012262F3830381F87D383E4B87
S2145041F003F58053194691F87C38012262F3C503C3
S21450420081F87C38A8E1384B03F5805393F87D3815
S214504210C3F38103DBB2012B02D0022B28D044E03B
S214504220314B03F5805393F87C3803F03803DBB2F8
S214504230182B12D12C4B03F58053194691F87D3824
S214504240022262F3830381F87D38274B03F58053AF
S2145042501A460023A2F8863861E0294B03F5D4634A
S21450426019464FF000024FF0000341E9022356E092
S2145042701D4B03F58053B3F88638B3F57A7F0AD3CF
S214504280194B03F580531A4692F87D3843F00C03C9
S21450429082F87D3843E01A4B03F5D46319464FF045
S2145042A00002184B41E9022339E00F4B03F58053C7
S2145042B093F87C3803F03803DBB2082B24D10A4B32
S2145042C003F58053194691F87D38012262F3830333
S2145042D081F87D3822E000BF0000000000049240C4
S2145042E0C5D31E5701C1C03F081340200000694087
S2145042F0A80840200000594050074020A02B4020DE
S214504300F00840200000F03F7D4B03F5D46319467B
S2145043104FF000024FF0000341E9022300BF794BF3
S21450432003F5805393F87C38C3F3C203DBB2032BF8
S21450433000F09580032B00F3B680012B02D0022BA1
S2145043402ED0B0E0704B1B78002B05D06F4B1B78EF
S214504350002B01D0012100E000210DF6C853A3F236
S21450436059120B4613700DF6C853A3F259131B7807
S214504370002B0BD0634B03F58053194691F87C38CD
S214504380022262F3C50381F87C38E5E060494FF0BD
S2145043900002604BC1E900235F4A00231370DBE044
S2145043A05E4B1B78002B25D05D4BD3E900014FF0B8
S2145043B000025C4B29F0C2FE0346002B1AD0584B25
S2145043C0D3E900014CA3D3E9002329F099FE034614
S2145043D0002B0FD04A4B03F50463D3E900014FF08E
S2145043E000024FF0804329F081FE0346002B01D097
S2145043F0012100E000210DF6C853A3F259120B46D6
S21450440013700DF6C853A3F259131B78002B0BD01C
S2145044103C4B03F58053194691F87C38032262F3DF
S214504420C50381F87C3897E0374B1B78002B0BD1AF
S214504430344B03F58053194691F87C38012262F3C9
S214504440C50381F87C3887E031494FF000024FF0C1
S2145044508043C1E90023304A002313707CE02A4B86
S2145044601B78002B0BD1274B03F58053194691F838
S2145044707C38042262F3C50381F87C386CE024490A
S2145044804FF00002284BC1E90023234A0123137042
S2145044901C4B03F5BD5319464FF000024FF0000376
S2145044A041E9022358E0184B1B78002B0BD0154BD4
S2145044B003F58053194691F87C38032262F3C503FE
S2145044C081F87C3847E00F4B03F5BD5353E90201A2
S2145044D04FF00002154B29F009FE0346002B27D05B
S2145044E0084B03F58053194691F87C38012262F345
S2145044F0C50381F87C382EE00000000000C058400C
S214504500F008402008134020DD084020DE084020F8
S214504510900840200000F03FE8084020DF08402088
S214504520500740200000144000000840000059404A
S214504530BE4B03F5BD5353E902014FF00002BC4B8E
S21450454029F0B6F902460B4610461946B74B03F506
S214504550BD5343E9020100BFB64B03F5D46353E99C
S214504560020101231C464FF000024FF0000329F0D1
S214504570BDFD0346002B01D000231C46E3B2AD4AD6
S21450458082F8173AAC4BD3E9000101231C464FF092
S2145045900002AA4B29F0D2FD0346002B01D100237E
S2145045A01C46E2B20DF6C853A3F5AA731A600DF670
S2145045B0C853A3F5AA731B68002B14BF012300230E
S2145045C0DBB29F4A13709F4B1B781A4602219E48B7
S2145045D04EF0A6F800220B219B484EF0A1F8984BBF
S2145045E01B781A46002199484EF09AF8002201216D
S2145045F097484EF095F88F4B93F8173A1A46042181
S21450460094484EF08DF8082193484EF048F90346EA
S214504610924A13700DF6C853A3F5AD72002313706B
S2145046200DF6C853A3F25B120223137000238DF8C5
S214504630FE3C0DE09DF8FE2C0DF6C853A3F67453C1
S2145046401A44002313729DF8FE3C01338DF8FE3C4D
S2145046509DF8FE3C072BEDD9764A40F28323C2F8EC
S214504660AC383821022037F019FC15AA012338211E
S214504670022036F01DFD01460DF6C853A3F25B121C
S2145046800B4613700DF6C853A3F5AD731A780DF696
S214504690C853A3F6745313441B7A664A82F80D39EE
S2145046A00DF6C853A3F5AD7319780DF6C853A3F598
S2145046B0AD724B1C13700DF6C853A3F5AD731A7834
S2145046C00DF6C853A3F6745313441B7A594A82F80E
S2145046D00E390DF6C853A3F5AD7319780DF6C853B9
S2145046E0A3F5AD724B1C13700DF6C853A3F5AD73FE
S2145046F01A780DF6C853A3F6745313441B7A4D4AD2
S21450470082F80F390DF6C853A3F5AD7319780DF628
S214504710C853A3F5AD724B1C13700DF6C853A3F5D2
S214504720AD731A780DF6C853A3F6745313441B7A18
S214504730404A82F810390DF6C853A3F5AD73197870
S2145047400DF6C853A3F5AD724B1C13700DF6C85337
S214504750A3F5AD731A780DF6C853A3F674531344E5
S2145047601B7A344A82F811390DF6C853A3F5AD7347
S21450477019780DF6C853A3F5AD724B1C13700DF691
S214504780C853A3F5AD731A780DF6C853A3F67453F1
S21450479013441B7A274A82F812390DF6C853A3F5EC
S2145047A0AD7319780DF6C853A3F5AD724B1C137044
S2145047B00DF6C853A3F5AD731A780DF6C853A3F685
S2145047C0745313441B7A1B4A82F813390DF6C85398
S2145047D0A3F5AD7319780DF6C853A3F5AD724B1CFF
S2145047E013700DF6C853A3F5AD731A780DF6C8536B
S2145047F0A3F6745313441B7A0E4A82F814390DF6F6
S214504800C853A3F5AD7319780DF6C853A3F5AD721A
S2145048104B1C13700DF6C853A3F25B131B78002B7A
S2145048201ED1044A012382F80C391DE0081340209B
S2145048300000F03FF00840205007402000003E4067
S214504840E0084020E8084020121729400E1729405B
S2145048500A1729400417294002172940E10840202A
S214504860D34A002382F80C39D14B93F80C39002BDD
S21450487000F0B2820DF6C853A3F5AE720023137043
S214504880CB4A082382F85133C94BD3F8AC28C84BCF
S214504890C3F85423C64A002382F850330DF6C85343
S2145048A0A3F5AE731A78C24B93F80D19C04B1A4441
S2145048B00B4682F860330DF6C853A3F5AE731978DD
S2145048C00DF6C853A3F5AE724B1C13700DF6C853B5
S2145048D0A3F5AE731A78B64B93F80E19B44B1A4428
S2145048E00B4682F860330DF6C853A3F5AE731978AD
S2145048F00DF6C853A3F5AE724B1C13700DF6C85385
S214504900A3F5AE731A78AA4B93F80F19A84B1A440E
S2145049100B4682F860330DF6C853A3F5AE7319787C
S2145049200DF6C853A3F5AE724B1C13700DF6C85354
S214504930A3F5AE731A789E4B93F810199C4B1A44F5
S2145049400B4682F860330DF6C853A3F5AE7319784C
S2145049500DF6C853A3F5AE724B1C13700DF6C85324
S214504960A3F5AE731A78924B93F81119904B1A44DC
S2145049700B4682F860330DF6C853A3F5AE7319781C
S2145049800DF6C853A3F5AE724B1C13700DF6C853F4
S214504990A3F5AE731A78864B93F81219844B1A44C3
S2145049A00B4682F860330DF6C853A3F5AE731978EC
S2145049B00DF6C853A3F5AE724B1C13700DF6C853C4
S2145049C0A3F5AE731A787A4B93F81319784B1A44AA
S2145049D00B4682F860330DF6C853A3F5AE731978BC
S2145049E00DF6C853A3F5AE724B1C13700DF6C85394
S2145049F0A3F5AE731A786E4B93F814196C4B1A4491
S214504A000B4682F860330DF6C853A3F5AE7319788B
S214504A100DF6C853A3F5AE724B1C1370644B93F847
S214504A205133082B40F0D881614BD3F85433B3F14F
S214504A30FF3F00F0D1815E4BD3F8542340F28323DE
S214504A409A4240F0C9815A4B93F85033002B40F0AD
S214504A50C3810DF6684319464FF000024FF000032D
S214504A6041E902230DF6C853A3F5B572002313800F
S214504A700DF6C853A3F6EA42002313800DF6C8532A
S214504A80A3F5B8720DF1DE031360494B93F8623309
S214504A909AB20DF6C853A3F6EA431B88134399B24D
S214504AA00DF6C853A3F6EA420B461380404B93F8D4
S214504AB063339BB21B029AB20DF6C853A3F6EA4371
S214504AC01B88134399B20DF6C853A3F6EA420B4619
S214504AD013800DF6C853A3F5B5720DF6C853A3F55B
S214504AE0B8731B681B8813800DF668431C460DF67A
S214504AF0C853A3F5B573B3F90030184629F024F817
S214504B0002460B4644E902230DF6584319460DF665
S214504B10684353E9022341E90223254B03F5096311
S214504B2019460DF6584353E9022341E902230DF680
S214504B30484319464FF000024FF00003C1E90023E6
S214504B400DF6C853A3F28112002313700DF6C85306
S214504B50A3F5C17200231370154B93F861335B10A5
S214504B60DBB203F00103D9B20DF6C853A3F5C172F8
S214504B700DF6C853A3F5C1731B780B4313700DF68F
S214504B80C853A3F281120DF6C853A3F5C1731B7810
S214504B9013700DF648431C460DF6C853A3F2811306
S214504BA01B78184628F0C0FF02460B4602E000BFAE
S214504BB0F0084020C4E900230DF6384319460DF698
S214504BC04843D3E90023C1E900238D4B03F509631D
S214504BD019460DF63843D3E90023C1E900230DF6F4
S214504BE0384319464FF000024FF0000341E90223C4
S214504BF00DF6C853A3F5CD72002313800DF6C85397
S214504C00A3F6EC42002313800DF6C853A3F5D072DA
S214504C1037AB13607A4B93F866339AB20DF6C85397
S214504C20A3F6EC431B88134399B20DF6C853A3F66C
S214504C30EC420B461380724B93F867339BB21B02C1
S214504C409AB20DF6C853A3F6EC431B88134399B299
S214504C500DF6C853A3F6EC420B4613800DF6C85318
S214504C60A3F5CD720DF6C853A3F5D0731B681B88F9
S214504C7013800DF638431C460DF6C853A3F5CD7376
S214504C80B3F90030184628F05FFF02460B4644E959
S214504C9002230DF6284319460DF6384353E90223EE
S214504CA041E902230DF628431C460DF628431946C3
S214504CB051A3D3E9002351E9020128F0AFFF024681
S214504CC00B4644E902234E4B03F50A6319460DF68C
S214504CD0284353E9022341E902230DF618431946A7
S214504CE04FF000024FF00003C1E900230DF6C85301
S214504CF0A3F5D972002313800DF6C853A3F6EE42DF
S214504D00002313800DF6C853A3F5DC720DF1DA03B9
S214504D1013603B4B93F864339AB20DF6C853A3F620
S214504D20EE431B88134399B20DF6C853A3F6EE42D2
S214504D300B461380324B93F865339BB21B029AB2E4
S214504D400DF6C853A3F6EE431B88134399B20DF6DF
S214504D50C853A3F6EE420B4613800DF6C853A3F580
S214504D60D9720DF6C853A3F5DC731B681B881380E5
S214504D700DF618431C460DF6C853A3F5D973B3F970
S214504D800030184628F0E0FE02460B46C4E90023E1
S214504D900DF6084319460DF61843D3E90023C1E92A
S214504DA000230DF608431C460DF60843194612A379
S214504DB0D3E90023D1E9000128F030FF02460B4624
S214504DC0C4E900230E4B03F50A6319460DF6084353
S214504DD0D3E90023C1E900230DF6C853A3F2C1124C
S214504DE0002313700DF6C853A3F5E1720223137017
S214504DF000238DF8FD3C13E0FCA9F1D24D62503FE4
S214504E00F00840209DF8FD2C0DF6C853A3F67453B9
S214504E101A44002313729DF8FD3C01338DF8FD3C77
S214504E209DF8FD3C072BEDD9744A4FF42173C2F818
S214504E30B0383921022037F031F815AA012339212C
S214504E40022036F035F901460DF6C853A3F5E17247
S214504E500B4613700DF6C853A3F2C1131A780DF60D
S214504E60C853A3F6745313441B7A644A82F816390F
S214504E700DF6C853A3F2C11319780DF6C853A3F212
S214504E80C1124B1C13700DF6C853A3F2C1131A78F7
S214504E900DF6C853A3F6745313441B7A574A82F838
S214504EA017390DF6C853A3F2C11319780DF6C85327
S214504EB0A3F2C1124B1C13700DF6C853A3F2C113C4
S214504EC01A780DF6C853A3F6745313441B7A4B4AFC
S214504ED082F818390DF6C853A3F2C11319780DF697
S214504EE0C853A3F2C1124B1C13700DF6C853A3F24D
S214504EF0C1131A780DF6C853A3F6745313441B7A8D
S214504F003E4A82F819390DF6C853A3F2C1131978E0
S214504F100DF6C853A3F2C1124B1C13700DF6C853AE
S214504F20A3F2C1131A780DF6C853A3F6745313445C
S214504F301B7A324A82F81A390DF6C853A3F2C113B7
S214504F4019780DF6C853A3F2C1124B1C13700DF608
S214504F50C853A3F2C1131A780DF6C853A3F6745368
S214504F6013441B7A254A82F81B390DF6C853A3F210
S214504F70C11319780DF6C853A3F2C1124B1C137007
S214504F800DF6C853A3F2C1131A780DF6C853A3F6FC
S214504F90745313441B7A194A82F81C390DF6C853B9
S214504FA0A3F2C11319780DF6C853A3F2C1124B1CC5
S214504FB013700DF6C853A3F2C1131A780DF6C853E2
S214504FC0A3F6745313441B7A0C4A82F81D390DF617
S214504FD0C853A3F2C11319780DF6C853A3F2C112E1
S214504FE04B1C13700DF6C853A3F5E1731B78002BBA
S214504FF006D1024A012382F8153905E0F008402010
S214505000D24A002382F81539D04B93F81539002B25
S21450501000F0B0820DF6C853A3F2C31200231370EB
S214505020CA4A082382F83933C84BD3F8B028C74B3E
S214505030C3F83C23C54A002382F838330DF6C853CC
S214505040A3F2C3131A78C14B93F81619BF4B1A44E0
S2145050500B4682F848330DF6C853A3F2C31319789B
S2145050600DF6C853A3F2C3124B1C13700DF6C8535B
S214505070A3F2C3131A78B54B93F81719B34B1A44C7
S2145050800B4682F848330DF6C853A3F2C31319786B
S2145050900DF6C853A3F2C3124B1C13700DF6C8532B
S2145050A0A3F2C3131A78A94B93F81819A74B1A44AE
S2145050B00B4682F848330DF6C853A3F2C31319783B
S2145050C00DF6C853A3F2C3124B1C13700DF6C853FB
S2145050D0A3F2C3131A789D4B93F819199B4B1A4495
S2145050E00B4682F848330DF6C853A3F2C31319780B
S2145050F00DF6C853A3F2C3124B1C13700DF6C853CB
S214505100A3F2C3131A78914B93F81A198F4B1A447B
S2145051100B4682F848330DF6C853A3F2C3131978DA
S2145051200DF6C853A3F2C3124B1C13700DF6C8539A
S214505130A3F2C3131A78854B93F81B19834B1A4462
S2145051400B4682F848330DF6C853A3F2C3131978AA
S2145051500DF6C853A3F2C3124B1C13700DF6C8536A
S214505160A3F2C3131A78794B93F81C19774B1A4449
S2145051700B4682F848330DF6C853A3F2C31319787A
S2145051800DF6C853A3F2C3124B1C13700DF6C8533A
S214505190A3F2C3131A786D4B93F81D196B4B1A4430
S2145051A00B4682F848330DF6C853A3F2C31319784A
S2145051B00DF6C853A3F2C3124B1C1370634B93F8EF
S2145051C03933082B40F0D681604BD3F83C33B3F1DB
S2145051D0FF3F00F0CF815D4BD3F83C33B3F5217FD2
S2145051E040F0C881594B93F83833002B40F0C281B9
S2145051F00DF6F83319464FF000024FF00003C1E9A0
S21450520000230DF6C853A3F5E972002313800DF65C
S214505210C853A3F54F62002313800DF6C853A3F569
S214505220EC7236AB1360494B93F84A339AB20DF68C
S214505230C853A3F54F631B88134399B20DF6C85352
S214505240A3F54F620B461380404B93F84B339BB2FB
S2145052501B029AB20DF6C853A3F54F631B8813432F
S21450526099B20DF6C853A3F54F620B4613800DF650
S214505270C853A3F5E9720DF6C853A3F5EC731B6833
S2145052801B8813800DF6F8331C460DF6C853A3F54D
S214505290E973B3F90030184628F056FC02460B4620
S2145052A0C4E900230DF6E83319460DF6F833D3E972
S2145052B00023C1E90023254B03F5076319460DF675
S2145052C0E833D3E9002341E902230DF6E8331946C3
S2145052D04FF000024FF0000341E902230DF6C85389
S2145052E0A3F2E912002313700DF6C853A3F5F57216
S2145052F000231370154B93F849335B10DBB203F061
S2145053000103D9B20DF6C853A3F5F5720DF6C8537E
S214505310A3F5F5731B780B4313700DF6C853A3F221
S214505320E9120DF6C853A3F5F5731B7813700DF6F6
S214505330E8331C460DF6C853A3F2E9131B781846FB
S21450534028F0F2FB02460B4602E000BFF008402071
S21450535044E902230DF6D83319460DF6E83353E9DF
S214505360022341E902238E4B03F5076319460DF6D7
S214505370D83353E90223C1E900230DF6C833194642
S2145053804FF000024FF00003C1E900230DF6C8535A
S214505390A3F20222002313800DF6C853A3F6F2425E
S2145053A0002313800DF6C853A3F502720DF1D603F1
S2145053B013607B4B93F84E339AB20DF6C853A3F650
S2145053C0F2431B88134399B20DF6C853A3F6F24224
S2145053D00B461380724B93F84F339BB21B029AB214
S2145053E00DF6C853A3F6F2431B88134399B20DF635
S2145053F0C853A3F6F2420B4613800DF6C853A3F2D9
S21450540002220DF6C853A3F502731B681B8813803F
S2145054100DF6C8331C460DF6C853A3F20223B3F953
S2145054200030184628F090FB02460B46C4E900238D
S2145054300DF6B83319460DF6C833D3E90023C1E943
S21450544000230DF6B8331C460DF6B833194652A352
S214505450D3E90023D1E9000128F0E0FB02460B46D1
S214505460C4E900234E4B03F5086319460DF6B833CE
S214505470D3E9002341E902230DF6B83319464FF01D
S21450548000024FF0000341E902230DF6C853A3F281
S2145054901A22002313800DF6C853A3F6F4420023B5
S2145054A013800DF6C853A3F5087235AB13603C4B0A
S2145054B093F84C339AB20DF6C853A3F6F4431B88B0
S2145054C0134399B20DF6C853A3F6F4420B46138015
S2145054D0334B93F84D339BB21B029AB20DF6C8531A
S2145054E0A3F6F4431B88134399B20DF6C853A3F69C
S2145054F0F4420B4613800DF6C853A3F21A220DF64B
S214505500C853A3F508731B681B8813800DF6B83371
S2145055101C460DF6C853A3F21A23B3F900301846AA
S21450552028F012FB02460B4644E902230DF6A83338
S21450553019460DF6B83353E9022341E902230DF616
S214505540A8331C460DF6A833194613A3D3E90023F7
S21450555051E9020128F062FB02460B4644E9022359
S2145055600F4B03F5086319460DF6A83353E902238B
S214505570C1E900230DF6C853A3F229220023137065
S2145055800DF6C853A3F22A220223137000238DF877
S214505590FC3C15E0AFF30080FCA9F1D24D62503FC1
S2145055A0F00840209DF8FC2C0DF6C853A3F6745313
S2145055B01A44002313729DF8FC3C01338DF8FC3CD2
S2145055C09DF8FC3C072BEDD9744A40F28723C2F86D
S2145055D0B4383A21022036F061FC15AA01233A214C
S2145055E0022035F065FD01460DF6C853A3F22A2277
S2145055F00B4613700DF6C853A3F229231A780DF6EE
S214505600C853A3F6745313441B7A644A82F81F395E
S2145056100DF6C853A3F2292319780DF6C853A3F2F2
S21450562029224B1C13700DF6C853A3F229231A785F
S2145056300DF6C853A3F6745313441B7A574A82F890
S21450564020390DF6C853A3F2292319780DF6C853FE
S214505650A3F229224B1C13700DF6C853A3F229232C
S2145056601A780DF6C853A3F6745313441B7A4B4A54
S21450567082F821390DF6C853A3F2292319780DF66E
S214505680C853A3F229224B1C13700DF6C853A3F22D
S21450569029231A780DF6C853A3F6745313441B7A6D
S2145056A03E4A82F822390DF6C853A3F229231978B8
S2145056B00DF6C853A3F229224B1C13700DF6C8538F
S2145056C0A3F229231A780DF6C853A3F6745313443D
S2145056D01B7A324A82F823390DF6C853A3F229238F
S2145056E019780DF6C853A3F229224B1C13700DF6E9
S2145056F0C853A3F229231A780DF6C853A3F6745349
S21450570013441B7A254A82F824390DF6C853A3F25F
S214505710292319780DF6C853A3F229224B1C13706F
S2145057200DF6C853A3F229231A780DF6C853A3F6DC
S214505730745313441B7A194A82F825390DF6C85308
S214505740A3F2292319780DF6C853A3F229224B1C2D
S21450575013700DF6C853A3F229231A780DF6C853C2
S214505760A3F6745313441B7A0C4A82F826390DF666
S214505770C853A3F2292319780DF6C853A3F2292249
S2145057804B1C13700DF6C853A3F22A231B78002B1C
S21450579006D1024A012382F81E3905E0F00840205F
S2145057A0D34A002382F81E39D14B93F81E39002B6A
S2145057B000F0B2820DF6C853A3F22B2200231370CA
S2145057C0CB4A082382F8F132C94BD3F8B428C84BD9
S2145057D0C3F8F422C64A002382F8F0320DF6C853B6
S2145057E0A3F22B231A78C24B93F81F19C04B1A44B6
S2145057F00B4682F800330DF6C853A3F22B231978C4
S2145058000DF6C853A3F22B224B1C13700DF6C8533B
S214505810A3F22B231A78B64B93F82019B44B1A449C
S2145058200B4682F800330DF6C853A3F22B23197893
S2145058300DF6C853A3F22B224B1C13700DF6C8530B
S214505840A3F22B231A78AA4B93F82119A84B1A4483
S2145058500B4682F800330DF6C853A3F22B23197863
S2145058600DF6C853A3F22B224B1C13700DF6C853DB
S214505870A3F22B231A789E4B93F822199C4B1A446A
S2145058800B4682F800330DF6C853A3F22B23197833
S2145058900DF6C853A3F22B224B1C13700DF6C853AB
S2145058A0A3F22B231A78924B93F82319904B1A4451
S2145058B00B4682F800330DF6C853A3F22B23197803
S2145058C00DF6C853A3F22B224B1C13700DF6C8537B
S2145058D0A3F22B231A78864B93F82419844B1A4438
S2145058E00B4682F800330DF6C853A3F22B231978D3
S2145058F00DF6C853A3F22B224B1C13700DF6C8534B
S214505900A3F22B231A787A4B93F82519784B1A441E
S2145059100B4682F800330DF6C853A3F22B231978A2
S2145059200DF6C853A3F22B224B1C13700DF6C8531A
S214505930A3F22B231A786E4B93F826196C4B1A4405
S2145059400B4682F800330DF6C853A3F22B23197872
S2145059500DF6C853A3F22B224B1C1370644B93F8CE
S214505960F132082B40F0D881614BD3F8F432B3F1C2
S214505970FF3F00F0D1815E4BD3F8F42240F28723EC
S2145059809A4240F0C9815A4B93F8F032002B40F0BF
S214505990C3810DF6983319464FF000024FF00003BE
S2145059A041E902230DF6C853A3F23A22002313808E
S2145059B00DF6C853A3F6F642002313800DF6C853CF
S2145059C0A3F510720DF1D2031360494B93F80233CE
S2145059D09AB20DF6C853A3F6F6431B88134399B2F2
S2145059E00DF6C853A3F6F6420B461380404B93F879
S2145059F003339BB21B029AB20DF6C853A3F6F64376
S214505A001B88134399B20DF6C853A3F6F6420B46BD
S214505A1013800DF6C853A3F23A220DF6C853A3F5D9
S214505A2010731B681B8813800DF698331C460DF6B2
S214505A30C853A3F23A23B3F90030184628F084F836
S214505A4002460B4644E902230DF6883319460DF6F6
S214505A50983353E9022341E90223254B03F50263A9
S214505A6019460DF6883353E9022341E902230DF611
S214505A70783319464FF000024FF00003C1E9002377
S214505A800DF6C853A3F25122002313700DF6C853D7
S214505A90A3F2522200231370154B93F801335B1078
S214505AA0DBB203F00103D9B20DF6C853A3F252226B
S214505AB00DF6C853A3F252231B780B4313700DF602
S214505AC0C853A3F251220DF6C853A3F252231B78A3
S214505AD013700DF678331C460DF6C853A3F25123B7
S214505AE01B78184628F020F802460B4602E000BF06
S214505AF0F0084020C4E900230DF6683319460DF629
S214505B007833D3E90023C1E900238D4B03F50263B4
S214505B1019460DF66833D3E90023C1E900230DF684
S214505B20683319464FF000024FF0000341E9022354
S214505B300DF6C853A3F26A22002313800DF6C853FD
S214505B40A3F6F842002313800DF6C853A3F51C7233
S214505B5034AB13607A4B93F806339AB20DF6C853AB
S214505B60A3F6F8431B88134399B20DF6C853A3F611
S214505B70F8420B461380724B93F807339BB21B02C6
S214505B809AB20DF6C853A3F6F8431B88134399B23E
S214505B900DF6C853A3F6F8420B4613800DF6C853BD
S214505BA0A3F26A220DF6C853A3F51C731B681B8814
S214505BB013800DF668331C460DF6C853A3F26A23BD
S214505BC0B3F90030184627F0BFFF02460B4644E9AB
S214505BD002230DF6583319460DF6683353E902235F
S214505BE041E902230DF658331C460DF65833194634
S214505BF051A3D3E9002351E9020128F00FF80246D9
S214505C000B4644E902234E4B03F5036319460DF643
S214505C10583353E9022341E902230DF64833194617
S214505C204FF000024FF00003C1E900230DF6C853B1
S214505C30A3F28222002313800DF6C853A3F6FA422D
S214505C40002313800DF6C853A3F522720DF1CE0330
S214505C5013603B4B93F804339AB20DF6C853A3F631
S214505C60FA431B88134399B20DF6C853A3F6FA426B
S214505C700B461380324B93F805339BB21B029AB2F5
S214505C800DF6C853A3F6FA431B88134399B20DF684
S214505C90C853A3F6FA420B4613800DF6C853A3F228
S214505CA082220DF6C853A3F522731B681B881380F7
S214505CB00DF648331C460DF6C853A3F28223B3F9AB
S214505CC00030184627F040FF02460B46C4E9002332
S214505CD00DF6383319460DF64833D3E90023C1E99B
S214505CE000230DF638331C460DF63833194612A3EA
S214505CF0D3E90023D1E9000127F090FF02460B4676
S214505D00C4E900230E4B03F5036319460DF63833EA
S214505D10D3E90023C1E900230DF6C853A3F291221C
S214505D20002313700DF6C853A3F292220223137069
S214505D3000238DF8FB3C13E0FCA9F1D24D62503F96
S214505D40F00840209DF8FB2C0DF6C853A3F674536C
S214505D501A44002313729DF8FB3C01338DF8FB3C2C
S214505D609DF8FB3C072BEDD9744A4FF42273C2F8CA
S214505D70B8383B21022036F091F815AA01233B2172
S214505D80022035F095F901460DF6C853A3F292223B
S214505D900B4613700DF6C853A3F291231A780DF6DE
S214505DA0C853A3F6745313441B7A644A82F82839AE
S214505DB00DF6C853A3F2912319780DF6C853A3F2E3
S214505DC091224B1C13700DF6C853A3F291231A78E8
S214505DD00DF6C853A3F6745313441B7A574A82F8E9
S214505DE029390DF6C853A3F2912319780DF6C853E6
S214505DF0A3F291224B1C13700DF6C853A3F29123B5
S214505E001A780DF6C853A3F6745313441B7A4B4AAC
S214505E1082F82A390DF6C853A3F2912319780DF655
S214505E20C853A3F291224B1C13700DF6C853A3F21D
S214505E3091231A780DF6C853A3F6745313441B7A5D
S214505E403E4A82F82B390DF6C853A3F2912319789F
S214505E500DF6C853A3F291224B1C13700DF6C8537F
S214505E60A3F291231A780DF6C853A3F6745313442D
S214505E701B7A324A82F82C390DF6C853A3F2912376
S214505E8019780DF6C853A3F291224B1C13700DF6D9
S214505E90C853A3F291231A780DF6C853A3F6745339
S214505EA013441B7A254A82F82D390DF6C853A3F2AF
S214505EB0912319780DF6C853A3F291224B1C1370F8
S214505EC00DF6C853A3F291231A780DF6C853A3F6CD
S214505ED0745313441B7A194A82F82E390DF6C85358
S214505EE0A3F2912319780DF6C853A3F291224B1CB6
S214505EF013700DF6C853A3F291231A780DF6C853B3
S214505F00A3F6745313441B7A0C4A82F82F390DF6B5
S214505F10C853A3F2912319780DF6C853A3F29122D1
S214505F204B1C13700DF6C853A3F292231B78002B0C
S214505F3006D1024A012382F8273905E0F0084020AE
S214505F40D24A002382F82739D04B93F82739002BB2
S214505F5000F0B0820DF6C853A3F2932200231370BC
S214505F60CA4A082382F8D932C84BD3F8B828C74B48
S214505F70C3F8DC22C54A002382F8D8320DF6C8533F
S214505F80A3F293231A78C14B93F82819BF4B1A449F
S214505F900B4682F8E8320DF6C853A3F293231978CD
S214505FA00DF6C853A3F293224B1C13700DF6C8532C
S214505FB0A3F293231A78B54B93F82919B34B1A4486
S214505FC00B4682F8E8320DF6C853A3F2932319789D
S214505FD00DF6C853A3F293224B1C13700DF6C853FC
S214505FE0A3F293231A78A94B93F82A19A74B1A446D
S214505FF00B4682F8E8320DF6C853A3F2932319786D
S2145060000DF6C853A3F293224B1C13700DF6C853CB
S214506010A3F293231A789D4B93F82B199B4B1A4453
S2145060200B4682F8E8320DF6C853A3F2932319783C
S2145060300DF6C853A3F293224B1C13700DF6C8539B
S214506040A3F293231A78914B93F82C198F4B1A443A
S2145060500B4682F8E8320DF6C853A3F2932319780C
S2145060600DF6C853A3F293224B1C13700DF6C8536B
S214506070A3F293231A78854B93F82D19834B1A4421
S2145060800B4682F8E8320DF6C853A3F293231978DC
S2145060900DF6C853A3F293224B1C13700DF6C8533B
S2145060A0A3F293231A78794B93F82E19774B1A4408
S2145060B00B4682F8E8320DF6C853A3F293231978AC
S2145060C00DF6C853A3F293224B1C13700DF6C8530B
S2145060D0A3F293231A786D4B93F82F196B4B1A44EF
S2145060E00B4682F8E8320DF6C853A3F2932319787C
S2145060F00DF6C853A3F293224B1C1370634B93F8C0
S214506100D932082B40F0D681604BD3F8DC32B3F14D
S214506110FF3F00F0CF815D4BD3F8DC32B3F5227FE2
S21450612040F0C881594B93F8D832002B40F0C281CA
S2145061300DF6283319464FF000024FF00003C1E920
S21450614000230DF6C853A3F2A222002313800DF6A7
S214506150C853A3F6FC42002313800DF6C853A3F58C
S2145061602A7233AB1360494B93F8EA329AB20DF663
S214506170C853A3F6FC431B88134399B20DF6C85375
S214506180A3F6FC420B461380404B93F8EB329BB27F
S2145061901B029AB20DF6C853A3F6FC431B88134352
S2145061A099B20DF6C853A3F6FC420B4613800DF673
S2145061B0C853A3F2A2220DF6C853A3F52A731B6840
S2145061C01B8813800DF628331C460DF6C853A3F2D1
S2145061D0A223B3F90030184627F0B6FC02460B4609
S2145061E0C4E900230DF6183319460DF62833D3E9C3
S2145061F00023C1E90023254B03F5006319460DF62D
S2145062001833D3E9002341E902230DF61833194613
S2145062104FF000024FF0000341E902230DF6C85339
S214506220A3F2B922002313700DF6C853A3F2BA2274
S21450623000231370154B93F8E9325B10DBB203F072
S2145062400103D9B20DF6C853A3F2BA220DF6C853BD
S214506250A3F2BA231B780B4313700DF6C853A3F260
S214506260B9220DF6C853A3F2BA231B7813700DF655
S21450627018331C460DF6C853A3F2B9231B7818469C
S21450628027F052FC02460B4602E000BFF0084020C2
S21450629044E902230DF6083319460DF6183353E930
S2145062A0022341E90223BC4B03F5006319460DF661
S2145062B0083353E90223C1E900230DF6F8231946A3
S2145062C04FF000024FF00003C1E900230DF6C8530B
S2145062D0A3F2D222002313800DF6C853A3F6FE4233
S2145062E0002313800DF6C853A3F536720DF1CA037A
S2145062F01360A94B93F8EE329AB20DF6C853A3F634
S214506300FE431B88134399B20DF6C853A3F6FE42BC
S2145063100B461380A04B93F8EF329BB21B029AB2F7
S2145063200DF6C853A3F6FE431B88134399B20DF6D9
S214506330C853A3F6FE420B4613800DF6C853A3F27D
S214506340D2220DF6C853A3F536731B681B881380EC
S2145063500DF6F8231C460DF6C853A3F2D223B3F914
S2145063600030184627F0F0FB02460B46C4E90023DF
S2145063700DF6E82319460DF6F823D3E90023C1E9B4
S21450638000230DF6E8231C460DF6E823194680A395
S214506390D3E90023D1E9000127F040FC02460B4622
S2145063A0C4E900237C4B03F5016319460DF6E82338
S2145063B0D3E9002341E902230DF6E82319464FF0AE
S2145063C000024FF0000341E902230DF6C853A3F232
S2145063D0EA22002313800DF6C853A3F5506200231B
S2145063E013800DF6C853A3F53C7232AB13606A4B5C
S2145063F093F8EC329AB20DF6C853A3F550631B8847
S214506400134399B20DF6C853A3F550620B4613804A
S214506410614B93F8ED329BB21B029AB20DF6C853FD
S214506420A3F550631B88134399B20DF6C853A3F5D2
S21450643050620B4613800DF6C853A3F2EA220DF6AF
S214506440C853A3F53C731B681B8813800DF6E823CE
S2145064501C460DF6C853A3F2EA23B3F9003018468B
S21450646027F072FB02460B4644E902230DF6D8236A
S21450647019460DF6E82353E9022341E902230DF6A7
S214506480D8231C460DF6D823194641A3D3E900233A
S21450649051E9020127F0C2FB02460B4644E90223AB
S2145064A03D4B03F5016319460DF6D82353E90223F5
S2145064B0C1E900230DF6C8231946384B03F58C5313
S2145064C0D3E90023C1E900230DF6C8231946334A01
S2145064D041F2D0131344D3E9002341E902232F4A53
S2145064E041F29013134453E902230DF55061C1E96C
S2145064F000232A4B03F58F5353E902233AA941E967
S21450650002230DF6B8231946244A41F29013134439
S214506510D3E90023C1E90023204B03F58F53D3E979
S21450652000233AA9C1E900230DF6B82319461B4BA0
S21450653003F58D5353E9022341E90223174A41F2EA
S214506540F013134453E902230DF55261C1E90023B9
S2145065500DF6A8231946114B03F58D53D3E90023A6
S214506560C1E900230D4A41F2F0131344D3E9002346
S2145065700DF62851C1E900230DF6A8231946074AFF
S21450658041F2B013134453E9022309E0AFF30080FD
S214506590FCA9F1D24D62503FF0084020081340202D
S2145065A041E902230DF698231946C14B03F5905343
S2145065B053E90223C1E900230DF698231946BC4A35
S2145065C041F2B0131344D3E9002341E902230DF6F8
S2145065D088231946B64B03F59053D3E90023C1E9F7
S2145065E000230DF688231946B14B03F58E5353E915
S2145065F0022341E902230DF678231946AC4A41F2AC
S2145066001023134453E90223C1E900230DF67823DF
S2145066101946A74B03F58E53D3E9002341E90223CD
S2145066200DF668231946A24A41F210231344D3E9C3
S2145066300023C1E900230DF6682319469C4A41F20F
S214506640D013134453E9022341E902230DF658238D
S2145066501946974B03F5915353E90223C1E900239A
S214506660052027F0B1FF0346924AA2F8F2380720D9
S21450667027F0AAFF03468F4AA2F8F438082027F0DE
S214506680A3FF03468B4AA2F8F638092027F09CFF52
S2145066900346884AA2F8F8380DF6C853A3F271326A
S2145066A0002313700DF6C853A3F2723202231370F0
S2145066B000238DF8FA3C0DE09DF8FA2C0DF6C853E1
S2145066C0A3F674531A44002313729DF8FA3C013310
S2145066D08DF8FA3C9DF8FA3C072BEDD9754A40F2F6
S2145066E0E513C2F8BC382321002035F0D7FB15AA95
S2145066F001232321002034F0DBFC01460DF6C8535D
S214506700A3F272320B4613700DF6C853A3F27133D0
S2145067101A780DF6C853A3F6745313441B7A654A79
S21450672082F830390DF6C853A3F2713319780DF646
S214506730C853A3F271324B1C13700DF6C853A3F214
S21450674071331A780DF6C853A3F6745313441B7A54
S214506750584A82F831390DF6C853A3F27133197876
S2145067600DF6C853A3F271324B1C13700DF6C85376
S214506770A3F271331A780DF6C853A3F67453134424
S2145067801B7A4C4A82F832390DF6C853A3F271334D
S21450679019780DF6C853A3F271324B1C13700DF6D0
S2145067A0C853A3F271331A780DF6C853A3F6745330
S2145067B013441B7A3F4A82F833390DF6C853A3F276
S2145067C0713319780DF6C853A3F271324B1C1370FF
S2145067D00DF6C853A3F271331A780DF6C853A3F6C4
S2145067E0745313441B7A334A82F834390DF6C8531F
S2145067F0A3F2713319780DF6C853A3F271324B1CBD
S21450680013700DF6C853A3F271331A780DF6C853A9
S214506810A3F6745313441B7A264A82F835390DF67C
S214506820C853A3F2713319780DF6C853A3F27132D8
S2145068304B1C13700DF6C853A3F271331A780DF62D
S214506840C853A3F6745313441B7A1A4A82F836393F
S2145068500DF6C853A3F2713319780DF6C853A3F248
S21450686071324B1C13700DF6C853A3F271331A785D
S2145068700DF6C853A3F6745313441B7A0D4A82F888
S21450688037390DF6C853A3F2713319780DF6C8533D
S214506890A3F271324B1C13700DF6C853A3F2723329
S2145068A01B78002B0AD1044A0123137009E000BF5D
S2145068B008134020F0084020DA084020C84A002339
S2145068C01370C74B1B78002B00F06A810DF6C85327
S2145068D0A3F2733200231370C24A082382F861323F
S2145068E0C04BD3F8BC28BF4BC3F86422BD4A002324
S2145068F082F860320DF6C853A3F273331A78B94B48
S21450690093F83019B74B1A440B4682F870320DF68E
S214506910C853A3F2733319780DF6C853A3F27332E3
S2145069204B1C13700DF6C853A3F273331A78AD4B45
S21450693093F83119AB4B1A440B4682F870320DF669
S214506940C853A3F2733319780DF6C853A3F27332B3
S2145069504B1C13700DF6C853A3F273331A78A14B21
S21450696093F832199F4B1A440B4682F870320DF644
S214506970C853A3F2733319780DF6C853A3F2733283
S2145069804B1C13700DF6C853A3F273331A78954BFD
S21450699093F83319934B1A440B4682F870320DF61F
S2145069A0C853A3F2733319780DF6C853A3F2733253
S2145069B04B1C13700DF6C853A3F273331A78894BD9
S2145069C093F83419874B1A440B4682F870320DF6FA
S2145069D0C853A3F2733319780DF6C853A3F2733223
S2145069E04B1C13700DF6C853A3F273331A787D4BB5
S2145069F093F835197B4B1A440B4682F870320DF6D5
S214506A00C853A3F2733319780DF6C853A3F27332F2
S214506A104B1C13700DF6C853A3F273331A78714B90
S214506A2093F836196F4B1A440B4682F870320DF6AF
S214506A30C853A3F2733319780DF6C853A3F27332C2
S214506A404B1C13700DF6C853A3F273331A78654B6C
S214506A5093F83719634B1A440B4682F870320DF68A
S214506A60C853A3F2733319780DF6C853A3F2733292
S214506A704B1C13705B4B93F86132082B40F09080A0
S214506A80584BD3F86432B3F1FF3F00F08980554B32
S214506A90D3F8642240F2E5139A4240F08180514B7D
S214506AA093F86032002B7BD10DF6482319464FF0F1
S214506AB000024FF00003C1E900230DF6C853A3F2BD
S214506AC08232002313800DF6C853A3F602520023D9
S214506AD013800DF6C853A3F562720DF1C60313600A
S214506AE0404B93F872329AB20DF6C853A3F602533F
S214506AF01B88134399B20DF6C853A3F602520B46A1
S214506B001380384B93F871329BB21B029AB20DF633
S214506B10C853A3F602531B88134399B20DF6C853B5
S214506B20A3F602520B4613800DF6C853A3F28232D8
S214506B300DF6C853A3F562731B681B8813800DF6B9
S214506B4048231C460DF6C853A3F28233B3F90030DF
S214506B50184626F0F9FF02460B46C4E900230DF608
S214506B60382319460DF64823D3E90023C1E90023FC
S214506B700DF638231C460DF6382319464FF0000202
S214506B80194BD1E9000127F049F802460B46C4E9F3
S214506B90002316490DF63823D3E90023C1E9002314
S214506BA0134B03F5805393F87D3803F04003DBB264
S214506BB0002B1FD10E4B03F580531A4692F87D38A2
S214506BC043F0400382F87D38094B03F5805319464D
S214506BD091F87C38022262F3020381F87C3838E15F
S214506BE0DA084020F00840200000B03FC808402097
